:040000000C94470015
:14008C007422CFEFD0E1CDBFDEBFC451D0400AEA088300246A
:1400A000E2E0F1E011E0E230F10711F00192FBCF0083ECE809
:1400B400F0E0A0E0B1E010E000E00BBFEE38F10721F0C89531
:1400C80031960D92F9CF0E946A00FFCF8FEE82B98FEF81BBAA
:1400DC000BC081B18071803121F42090000122BA03C020905C
:1400F000010122BAF4CF08950E949100442755270BC066274C
:14010400772702C06F5F7F4F6433E8E07E07D0F34F5F5F4FE8
:140118004017510790F30C9496007A936A935A934A930895FA
:0A012C004991599169917991089564
:00000001FF
